:0C0000000C9464000C9400000C940000B0
:10000C000C9400000C9400000C9400000C94000064
:10001C000C9400000C9400000C9400000C94000054
:10002C000C9400000C9400000C9400000C94000044
:10003C000C9400000C9400000C9400000C94000034
:10004C000C9400000C9400001027E80364000A00D4
:10005C0001000010000110000100524541445900FC
:10006C0054696D653A20253032753A253032753A2F
:10007C0025303275200050617573656400636C6FB8
:10008C0073652074686520646F6F720050726573BD
:10009C007320427574746F6E730080C0060060022A
:1000AC0066000700660282000F006D0289000E00D8
:1000BC007C02980002008A02A6000000F894EE2749
:1000CC00ECBBF1E0FBBFEBBFE5BF8DE0A2E0BB27D3
:1000DC00ED938A95E9F780E098E0A0E6ED9301971F
:1000EC00E9F7E8EAF0E085919591009761F0A59128
:1000FC00B59105901590BF01F00105900D920197F7
:10010C00E1F7FB01F0CFEFE5EDBFE8E0EEBFC0E6B5
:10011C00D2E00C94FB00BA93AA9360970E94280437
:10012C000A8D1B8D288D398D4E895F89A0E129D1CF
:10013C00859B51C0869949C0909A0150104011235B
:10014C0022F40BE310E021503040332322F42BE354
:10015C0030E04150504000240016010641F40024C8
:10016C000216030621F400240416050609F00CC03F
:10017C000E94B603A0E6B2E0F3D0C89AA8ECB0E0B7
:10018C000E94040498982DC0FE013696FA93EA93C7
:10019C00ECE6F0E0FA93EA93FA010E94BE03F9014F
:1001AC000E94BE03F8010E94BE038CE00E9469030A
:1001BC006096E0E0EA93A0E0A5D0DE011696D0D0E0
:1001CC00A8EEB3E00E94040405C00E94B603A6E6A4
:1001DC00B2E0C6D005C00E94B603ADE6B2E0C0D016
:1001EC00A7CF0E942F046C960895E1E0EABBE0E0F3
:1001FC00EBBBE7BBE8BBE4BBE5BBEDE7E1BBE0E099
:10020C00E2BBE3BFE2BFECBFEFBDEEBDEDBDECBDAD
:10021C00E7BDE6BDEBBDEABDE9BDE8BDE2BDE5BDB0
:10022C00E4BDE3BDE9BFE5BFE4BFEAB9E0E8E8B986
:10023C00E0E0E0BFE6B9EDB9E6BFA0E1A2D0819B5A
:10024C003FC0819B3DC06BD0E0E0EA93A0E05AD068
:10025C00ACE7B2E085D0A4EFB1E00E940404809931
:10026C0004C0819902C0829B01C001C0F8CF829B5F
:10027C000AC0829B08C0EFE0F0E00E94C303A0E03C
:10028C00B0E049DFFFCF839B0EC0839B0CC0E0E046
:10029C00F0E0FA93EA93E1E0F0E0FA93EA93A0E05D
:1002AC00B0E039DFFFCF849B0AC0849B08C0E0E03C
:1002BC00F0E00E94C303A2E0B0E02DDFFFCFC1CF7E
:1002CC00BECFFFCFAA93E8B3EF70AE2FE881E07FEB
:1002DC00EA2BE8BB8DE08A95F1F7C29A8DE08A95FE
:1002EC00F1F7C2988DE08A95F1F777C0AA93A881AF
:1002FC00E9DFE881E295E883A881E4DF85E88A9567
:10030C00F1F76BC0AA93E881F0E0E657FD4FE0816E
:10031C00A981AE0FEBDF5980488022960895A2E0A8
:10032C000E94CA03ACE0E2DFA1E00E94CA03E0E055
:10033C004E2E5E2E0895AA93A881AA3011F0571460
:10034C0048F0E0E0EA934394A42DDCDFA881AA30C6
:10035C0009F443C05394C09AA881C8DFC0983DC02B
:10036C00BA93AA931A93A981BA81ED91A983BA83FE
:10037C001E2FE03019F0A12FDEDFF5CF1881239668
:10038C000895AA93E7B3E06FE7BBBA9AB89AB99A03
:10039C00C298C098C1987880E881E058E0938C02AC
:1003AC00E881E054E0938D02A4E1B0E00E940404E3
:1003BC000E94D0030E94D0030E94D003A0E282DFEF
:1003CC0088EC90E00197F1F7A8E290DFA4E08EDFD3
:1003DC00A5E88CDFA6E08ADFA2DF21960895BA9308
:1003EC00AA931A930A93AA81BB8112960E941B04AA
:1003FC00309759F1AA81BB8114960E941B048F017E
:10040C00309761F00230E0E01E0798F0F801319768
:10041C008F01AA81BB811496ED93FC93AA81BB81B9
:10042C001296ED91FD913196FE93EE933197AC813E
:10043C00A083AA81BB810E941B04FF232AF0ED91AB
:10044C00FD913196FE93EE9306C0AA81BB81EFEF2E
:10045C00FFEFED93FC931981088125960895BA93CB
:10046C00AA9326970E94280410E0AC85BD85E0E095
:10047C00F0E0ED93FC93EA89FB893196EA8BFB8BD8
:10048C003197E4912E2FE03009F415C1E12FE030C3
:10049C0039F4253211F411E002C00E94D8030AC1CC
:1004AC00E130A9F4253219F40E94D80302C112E0FC
:1004BC0040E000E02D3211F401E0FCC02B3211F4CD
:1004CC004BE2F8C0203211F440E2F4C002C0E2303A
:1004DC0039F450E013E0203311F40068EBC003C092
:1004EC00E33009F0E7C0203310F02A3308F007C0DE
:1004FC00AAE05A9F502DE22FE0535E0FDBC0E22F93
:10050C00E33649F40E94DF03E889F989A481AA93B0
:10051C000E94E503CEC0E33741F40E94DF030E9442
:10052C00EB030E949D031E2F0AC0E03761F40E946A
:10053C00DF030E94EB030E94A9031E2F08600260D8
:10054C000F7730E034C0E43611F0E93611F4046072
:10055C0002C0E53731F4E4E5F0E0EE83FF8315E00B
:10056C000CC0E83511F4086003C0E83709F0A1C0ED
:10057C00EEE5F0E0EE83FF8314E002FF14C00E946E
:10058C00DF030E94F503AB85AA233AF4EA85FB85C9
:10059C000E941204EA87FB874DE2403011F01F5F86
:1005AC0001C00B7F04C00E94DF030E94F50300FD15
:1005BC0011C0151778F407FF08C002FF04C00B7FA9
:1005CC00242F115001C020E301C020E20E94D80367
:1005DC005150EFCF312F01FF17C03030A1F003FF86
:1005EC0006C0EE81FF812591EE83FF8305C0AE81AD
:1005FC00BF812D91AE83BF830E94D803503009F088
:10060C0051503150EACF4BC020E3EE81FF810E9464
:10061C001F04E887F987EE81FF813296EE83FF8312
:10062C00E885F985AA85BB85AE17BF0750F02F5F0B
:10063C00A885B985EA85FB85EA1BFB0BEA87FB8756
:10064C00EFCF2A3328F003FF02C0295F01C0295DD8
:10065C0004FD1AC0213320F4A885B985119709F43B
:10066C0009C0531710F000FF01C013C020E207FFB0
:10067C000BC020E3006102FF07C00B7F4A930E946E
:10068C00E503503009F051500E94D803503009F066
:10069C0051503150A885B985129708F0B5CF00FF9D
:1006AC0008C0503031F05150E0E2EA930E94E5036B
:1006BC00F8CF10E0E0CEAC85BD850E941B040E94F3
:1006CC002F0464960895FF92F82E26970E942A0410
:1006DC000E94FD03309719F4EFEFFFEF23C0DE010A
:1006EC0016960E940E048D010E94FD03EE83FF837B
:1006FC00E0E0E887E987DE011A960E940E040E946A
:10070C001B04FA93EA931A930A93E5EFF1E0FA9338
:10071C00EA93DE011A96A3DE9F01AE81BF81E0E071
:10072C00EC93F9010E9431042A96FF900895BA9334
:10073C00AA93A991B991EE27FF276D91662311F029
:10074C003196FBCF0895BA93AA93AA27BB27E991B8
:10075C00F9910590002011F01196FBCFFD01089541
:10076C0090980E949501E0E0EA93A0E00C94880137
:10077C000E9416040E9423040895FA93EA93E0E081
:10078C00F0E0FA93EA9308950E947C01A3E0B0E0B4
:10079C000C940404A0E30E94680188EC90E001979B
:1007AC00F1F708952A93AD85BE85EF85F8890995F3
:1007BC000895E889F9893497E88BF98B0895AD850C
:1007CC00BE85EF85F88909950895A889B98914968D
:1007DC000E941B04EE83FF83AE81BF810895A8891C
:1007EC00B98914960E941B04EA87FB870895DE01E1
:1007FC001C960E940E040E941B040895109639F05A
:10080C00A89580ED97E00197F1F71197C9F7089536
:10081C000024AF0DB01D0895F195E195F0400895B9
:10082C006F2F660F660B762F0895ED91FC91119743
:10083C0008950590F491E02D08957A936A93FA93B4
:10084C00EA9308955A934A933A932A931A930A93E4
:10085C0008955D814C813B812A811981088108951D
:00000001FF
